:100000000C9434000C943E000C943E000C943E0082
:100010000C943E000C943E000C943E000C943E0068
:100020000C943E000C943E000C943E000C945A003C
:100030000C943E000C943E000C943E000C943E0048
:100040000C943E000C943E000C943E000C943E0038
:100050000C943E000C943E000C943E000C943E0028
:100060000C943E000C943E0011241FBECFEFD8E04C
:10007000DEBFCDBF0E9440000C946C000C940000C9
:10008000F894809181008360809381008AE196E0FA
:10009000909389008093880080918100886080938C
:1000A000810080916F00826080936F007894509AF5
:1000B000589AFFCF1F920F920FB60F9211248F9371
:1000C0009F938BB191E089278BB99F918F910F906E
:0C00D0000FBE0F901F901895F894FFCF02
:00000001FF
