:100000000BC010C00FC00EC00DC00CC00BC00AC08A
:1000100009C008C007C006C011241FBECFEDCDBF68
:100020007AD0E5C0EDCF369A349BFECF25B130E0D3
:10003000220F331F220F331F822F932F0895855DC8
:10004000904097FF03C0909581959F4F6CE170E0C1
:10005000A5D0862F972F8B30910514F08AE090E081
:10006000282F392F97FF02C020E030E0822F932FF6
:100070000895282F392F883091055CF481E090E0B5
:1000800002C0880F991F2A95E2F7815088BB1BBADE
:1000900008958FE788BB2930310541F02A303105BA
:1000A00039F02830310521F482E003C086E001C038
:1000B00086E18BBB08950F931F93CF93DF93C0E02E
:1000C000D0E004ED10E38C2F9D2FD3DF802F912FF4
:1000D0000197F1F72196CB30D105A9F7C9E0D0E01F
:1000E00004ED10E38C2F9D2FC4DF802F912F0197FB
:1000F000F1F721978FEFCF3FD807A1F7DF91CF918D
:100100001F910F9108958FDF9ADFB3DF88EA91E6A0
:100110000197F1F7089586E18ABB8FE787BB80EAF4
:1001200087B983E886B9EFDFFECF282F2F7728BB6A
:10013000482F592F4070517066E0569547956A9543
:10014000E1F7282F392F2078307056E03695279523
:100150005A95E1F7422B8070927025E0969587952D
:100160002A95E1F7482B4BBB08950F931F93CF932C
:10017000DF93C0E0D0E008E813E18C2F9D2FD5DF9E
:10018000802F912F0197F1F7219684E0C030D80796
:10019000A1F7DF91CF911F910F91089597FB092E41
:1001A00007260AD077FD04D00CD006D000201AF420
:1001B000709561957F4F0895F6F7909581959F4FC3
:1001C0000895AA1BBB1B51E107C0AA1FBB1FA6179E
:1001D000B70710F0A61BB70B881F991F5A95A9F7F0
:1001E00080959095682F792F8A2F9B2F0895F894EA
:0201F000FFCF3F
:00000001FF
