:1000000012C017C016C015C014C013C012C011C052
:1000100010C00FC00EC00DC00CC00BC00AC009C07C
:1000200008C007C006C011241FBECFEDCDBF71D0E0
:10003000D6C0E6CF369A349BFECF25B130E0220FF2
:10004000331F220F331FC90108958052934097FF39
:1000500003C0909581959F4F6DE270E099D0CB01E0
:100060006B30710514F08AE090E09C0197FF02C0AC
:1000700020E030E0C90108959C01883091055CF4CE
:1000800081E090E002C0880F991F2A95E2F7815025
:1000900088BB1BBA08958FE788BB2930310541F032
:1000A0002A30310539F02830310521F482E003C0CF
:1000B00086E001C086E18BBB08950F931F93CF9319
:1000C000DF93C0E0D0E004ED10E3CE01D5DFC8013E
:1000D0000197F1F72196CB30D105B9F7C9E0D0E00F
:1000E00004ED10E3CE01C8DFC8010197F1F72197B5
:1000F0008FEFCF3FD807B1F7DF91CF911F910F91CD
:10010000089598DFA2DFB8DF88EA91E60197F1F75A
:10011000089586E18ABB8FE787BB80EA87B983E8C9
:1001200086B9EFDFFECF282F2F7728BBAC014070B8
:10013000517066E0569547956A95E1F79C012078E5
:10014000307056E0369527955A95E1F7422B80702E
:10015000927025E0969587952A95E1F7482B4BBB41
:1001600008950F931F93CF93DF93C0E0D0E008E88A
:1001700013E1CE01D8DFC8010197F1F7219684E0A1
:10018000C030D807B1F7DF91CF911F910F9108953B
:1001900097FB092E07260AD077FD04D00CD006D095
:1001A00000201AF4709561957F4F0895F6F79095A9
:1001B00081959F4F0895AA1BBB1B51E107C0AA1F41
:1001C000BB1FA617B70710F0A61BB70B881F991FF8
:1001D0005A95A9F780959095BC01CD010895F894A2
:0201E000FFCF4F
:00000001FF
