:100000000BC010C00FC00EC00DC00CC00BC00AC08A
:1000100009C008C007C006C011241FBECFEDCDBF68
:10002000B8D0FCC0EDCF369A3699FECF95B180E0BE
:100030000895E82FF92FA081B18140E050E00AC077
:1000400020813181A217B30714F4A22FB32F4F5F81
:100050005F4F3296461757079CF38A2F9B2F0895C0
:100060006AE070E0A0D060E074E0AFD0862F972FF8
:100070008B30910514F08AE090E0282F392F97FFFC
:1000800002C020E030E0822F932F0895282F392FCF
:10009000883091055CF481E090E002C0880F991FE0
:1000A0002A95E2F7815088BB1BBA08958FE788BB79
:1000B0002930310541F02A30310539F02830310539
:1000C00021F482E003C086E001C086E18BBB089585
:1000D0000F931F93CF93DF93C0E0D0E004ED10E3C4
:1000E0008C2F9D2FD3DF802F912F0197F1F7219631
:1000F000CB30D105A9F7C9E0D0E004ED10E38C2F97
:100100009D2FC4DF802F912F0197F1F721978FEF5B
:10011000CF3FD807A1F7DF91CF911F910F9108959D
:10012000282F2F7728BB482F592F4070517066E039
:10013000569547956A95E1F7282F392F207830702A
:1001400056E0369527955A95E1F7422B80709270CC
:1001500025E0969587952A95E1F7482B4BBB0895A6
:100160000F931F93CF93DF93C0E0D0E008E813E133
:100170008C2F9D2FD5DF802F912F0197F1F721969E
:1001800084E0C030D807A1F7DF91CF911F910F9184
:1001900008958EEF8ABB8FE787BB80E287B983E83B
:1001A00086B9DEDFFECF5527002480FF02C0060E91
:1001B000571F660F771F6115710521F0969587957A
:1001C000009799F7952F802D089597FB092E072604
:1001D0000AD077FD04D00CD006D000201AF4709518
:1001E00061957F4F0895F6F7909581959F4F0895FB
:1001F000AA1BBB1B51E107C0AA1FBB1FA617B7074D
:1002000010F0A61BB70B881F991F5A95A9F7809568
:100210009095682F792F8A2F9B2F0895F894FFCF00
:00000001FF
