:1000000016C027C026C025C024C023C022C021C0DE
:1000100020C01FC01EC01DC058C059C05AC05BC000
:100020005CC05DC05EC05FC062C065C068C01124B6
:100030001FBECFEDCDBF10E0A0E6B0E0EAEEF1E0EC
:1000400003C0C89531960D92A036B107D1F784D080
:10005000CAC0D6CF369A3699FECF95B180E00895C2
:10006000E82FF92FA081B18140E050E00AC0208143
:100070003181A217B30714F4A22FB32F4F5F5F4F44
:100080003296461757079CF38A2F9B2F08956AE0F4
:1000900070E06ED060E074E07DD0862F972F8B30BB
:1000A000910514F08AE090E0282F392F97FF02C0C5
:1000B00020E030E0822F932F0895E82FF92F8B3026
:1000C0009105E8F4E45FFF4F099418BA0EC081E08F
:1000D0000BC083E009C087E007C08FE005C08FE157
:1000E00003C08FE301C08FE788BB1BBA08958FE779
:1000F00088BB82E007C08FE788BB86E003C08FE73C
:1001000088BB86E18BBB08950F931F93CF93DF933A
:10011000C0E0D0E004ED10E38C2F9D2FCEDF802FC8
:10012000912F0197F1F72196CB30D105A9F7C9E0BE
:10013000D0E004ED10E38C2F9D2FBFDF802F912F97
:100140000197F1F721978FEFCF3FD807A1F7DF9104
:10015000CF911F910F9108958EEF8ABB8FE787BBD8
:1001600080E287B983E886B975DF91DFA6DFFCCF2F
:100170005527002480FF02C0060E571F660F771F09
:100180006115710521F096958795009799F7952F40
:10019000802D089597FB092E07260AD077FD04D0FD
:1001A0000CD006D000201AF4709561957F4F089509
:1001B000F6F7909581959F4F0895AA1BBB1B51E1BF
:1001C00007C0AA1FBB1FA617B70710F0A61BB70BC7
:1001D000881F991F5A95A9F780959095682F792FB8
:0A01E0008A2F9B2F0895F894FFCF9B
:00000001FF
